:100000000EC0A7C1CBC126C025C00CC223C022C0D0
:1000100021C020C01FC01EC0CBC11CC01BC01124EA
:100020001FBECFE5D2E0DEBFCDBF11E0A0E6B0E05D
:10003000E6E9F0E102C005900D92AC31B107D9F7C5
:1000400021E0ACE1B1E001C01D92A536B207E1F7B5
:10005000DFD21FC899C1A895F89414BE91B59861D4
:1000600091BD813049F030F0823041F0833041F46D
:1000700087E405C082E403C083E401C085E481BD58
:1000800078940895A895F89414BE81B5886181BDCF
:1000900011BC7894089585B7877E806185BFF894F8
:1000A00085B7806285BF85B7846885BF8B7F85BF34
:1000B0007894889585B78F7D85BF08959B01893099
:1000C00058F490E06AE270E064D7BC01675F7F4F4C
:1000D0004AE250E0C901AEC7089543E050E066E04F
:1000E00070E0A8C7CF93909155019A32B0F4C82F11
:1000F000E92FF0E0E45EFE4F87839F5F9093550108
:1001000063E271E088E0DADFCC3039F01092580118
:1001100080911D01886080931D01CF910895E3E2D5
:10012000F1E08FEF819391E0ED34F907D9F7109268
:1001300055010895909155019A32E8F4E92FF0E0C5
:10014000E45EFE4F87839F5F9093550180911C0171
:10015000863039F080915301863019F08091540136
:1001600001C087E063E271E0A9DF609159017091FD
:100170005A0183EFEFC160E273E084EFEBD110929C
:100180001C010895CF93DF93E3E2F1E09C01265D2B
:100190003F4FDF01EC014991CE014D93C217D307C8
:1001A000C9F780E0919197FD03C08F5F8A32D1F744
:1001B0008093550180911C01863039F08091530164
:1001C000863019F08091540101C087E063E271E04C
:1001D00075DFC0E080915501C81768F4609159013E
:1001E00070915A0183EFB6D18091590190915A01D3
:1001F0008BD1CF5FEFCFDF91CF9108951F93CF9336
:10020000DF9300D01F92CDB7DEB7182F43E050E048
:1002100061E070E0CE010196F5D689818F3FC9F487
:100220006091500181E090E026D76091510182E019
:1002300090E021D76091520183E090E01CD7612FBC
:1002400080E090E018D71093220160E971E085EF1B
:1002500036C090E020915001022E000C330B821723
:100260009307A9F42A8130E080915101082E000CF7
:10027000990B2817390759F44B8150E0209152010E
:10028000022E000C330B81E04217530709F080E087
:1002900080FF16C06FEF81E090E0EDD66FEF82E057
:1002A00090E0E9D66FEF83E090E0E5D660E080E093
:1002B00090E0E1D61092220160E971E084EF4AD12A
:1002C0000F900F900F90DF91CF911F910895EF92B3
:1002D000FF920F931F93CF93DF93693098F58A01B4
:1002E0007C01862F90E06AE270E053D6BC01675F24
:1002F0007F4F4AE250E0C70185D6E7018AE2E80E67
:10030000F11CFE01819187FF15C0EE15FF05D1F7A5
:1003100060E971E084EFDF91CF911F910F91FF9021
:10032000EF9018C18C3051F480ED97E0EDD0CE15F0
:10033000DF0541F089918D30D0F7F4CFB8010AD1B3
:10034000C801F4CFDF91CF911F910F91FF90EF90F3
:1003500008951F920F920FB60F9211248F938091E0
:100360001E0181110BC080911D018C7F80931D01A6
:1003700080914D018F5F80934D01A8958F910F90D3
:100380000FBE0F901F9018951F920F920FB60F92ED
:1003900011240F900FBE0F901F9018951F920F926F
:1003A0000FB60F9211240F900FBE0F901F9018954B
:1003B0001F920F920FB60F9211248F93EF93FF931A
:1003C000ECE1F1E0818184608183FF91EF918F9175
:1003D0000F900FBE0F901F9018958AB580688ABD48
:1003E0008AB58F7B8ABD089582E089BF83E08ABD8C
:1003F00081E083BF12BE19BCB89A109262011092BC
:100400005F011092610110926001109264011092DC
:10041000630110925B0110925C0110925D011092D9
:100420005E0108951F920F920FB60F9211242F9321
:100430003F938F939F93AF93BF93EF93FF9320913D
:1004400062018091600190916101820F911D9093F2
:10045000610180936001E0916001F0916101349647
:1004600023E0F695E7952A95E1F7EF770E2E000C3D
:10047000FF0BE456FF4F808190915F019923F1F0CB
:1004800090915F012091630130916401290F311D2A
:100490003093640120936301E0916301F091640162
:1004A000349693E0F695E7959A95E1F7EF770E2E5F
:1004B000000CFF0BE456FF4F908101C090E0890FC4
:1004C00096959695891B89BD80915B0190915C0101
:1004D000A0915D01B0915E010196A11DB11D8093B7
:1004E0005B0190935C01A0935D01B0935E01FF916D
:1004F000EF91BF91AF919F918F913F912F910F906D
:100500000FBE0F901F90189510925B0110925C0126
:1005100010925D0110925E0125B7277E25BF6FE026
:1005200070E037D5A0E0B0E040915B0150915C01F4
:1005300060915D0170915E0184179507A607B7076A
:1005400040F025B7206225BF889525B72F7D25BFB0
:10055000EBCF0895CF93DF93EB011BBE8C3060F49B
:10056000E82FEE0FFF0BEC57FF4F80818093620165
:10057000818180935F0107C0863F39F482E48093D4
:10058000620110925F0129DF31C0833F11F481E2E3
:10059000F6CF853FA1F482E28093620110925F0161
:1005A0001CDFCE0163E070E005D5EB01CB01ACDFD1
:1005B0008BE280936201CE01A7DF83E315C0843F05
:1005C000B9F483E38093620110925F0106DFCE01EC
:1005D00063E070E0EFD4EB01CB0196DF8BE2809318
:1005E0006201CE0191DF82E280936201CE018CDF55
:1005F0008AB58F778ABD8AB58F7B8ABDC0981092E5
:10060000620110925F0180E68BBFDF91CF91089568
:10061000CF93DF9300D01F92CDB7DEB71092580171
:1006200080E090E0FFD4833008F080E080932201E6
:1006300090E896BD16BC88B3866088BB8BE080BD11
:1006400098B983E085BF80E68BBF86E085BB789450
:1006500081E001DD20DD16DDC7DE10921C0181E0A6
:1006600080931E0110921D011092530110921F01E0
:10067000109221018FEF80934E0180934F01809360
:1006800050018093510180935201109220011092E9
:100690005501109254018093560185E090E0C2D438
:1006A000813019F084E690E002C088EC90E09093ED
:1006B0005A018093590184E090E0B4D4813011F064
:1006C00083E001C082E080935701E3E2F1E08DE432
:1006D00091E02FEF21938E179F07E1F743E050E061
:1006E00066E070E0CE0101968DD489818130D9F524
:1006F000EA81EF3F49F0EA30B0F5F0E0E658FF4F0D
:10070000108117FF02C02FC017E0EB81EA3040F4E0
:10071000F0E0EE0FFF1FE05AFF4FC080D18002C013
:10072000C12CD12CB19B1CC0E12CF12CEC14FD048C
:1007300050F4B19B18C080E08EDCADDCA3DC80E41B
:10074000E80EF11CF3CF9EDC85E090E06BD48130A5
:1007500009F0D4C348EC50E0612F83E291E0B7DDAB
:1007600081E080931F0191E0442443941FEF42E015
:10077000642E54E6A52EB12C65E0F62E74E0E72E2B
:10078000E6E07E2E86B301E0282F227081FF00E094
:1007900000931E0140911F01442361F010921C013F
:1007A00080911D018C7F80931D0110934D012111BB
:1007B00010921F0130912101332329F0211103C030
:1007C00000E0902FDFCF4111FCCF80911D019017E9
:1007D00009F40CC3211110C0311103C08160809352
:1007E0001D0180911D01877F80931D0110924D0195
:1007F00080E031DC50DC05C38C7F80931D0180914B
:100800004D019FEF980F9A3008F477C010934D0177
:1008100080911C01813051F435DC40915901509197
:100820005A0167E083E291E052DD0BC08230B1F4FF
:10083000809122018150823038F468EC70E084EFBE
:1008400089DE10921C01CFC21DDC87E08093540129
:100850007092530164DC70921C01C5C291E0833038
:1008600019F0863009F090E090FF0CC00BDC4AE2F2
:1008700050E069E571E083E291E0C4D383E291E066
:1008800081DCB1C2843091F4FDDB10935601F0920B
:100890001C016091590170915A0183EF5BDE49821E
:1008A0001A83FB82CE01019618DC9DC281111FC004
:1008B00080911F0181111BC0E5DB809122018230F4
:1008C00031F44091590150915A0167E00CC04AE25D
:1008D00050E069E571E083E291E094D340915901E1
:1008E00050915A0168E083E291E0F1DC7CC2109201
:1008F0001F0180E0B0DBCFDB76C28A3011F41092AA
:100900004D0181E0A8DBC7DBBDDB00911C010111BB
:1009100059C000914D01809122018230D9F060913F
:10092000590170915A01802F15DE8091580188235A
:1009300061F0809155018A3240F48CE0D3DB8091E4
:100940005801815080935801F0CF10925801802FA8
:10095000C9DB68C1909155018EEF890F833058F43F
:10096000809123018A50823030F4209124012A5052
:1009700081E0223008F080E080FF0FC0E92FF0E036
:10098000E45EFE4F07839F5F90935501609159018C
:1009900070915A0183EFDEDD45C1E02F000FFF0BA0
:1009A000E658FF4F608167FD08C0409159015091A2
:1009B0005A0183E291E08BDC34C160E971E084EF9D
:1009C000C9DD2FC1013009F03FC080912001E091C5
:1009D0004D01882309F495C28FEF8E0F823030F4D9
:1009E000E13011F48AE005C08BE003C0E33019F474
:1009F0008CE0A0DB1CC0AE2F0E2E000CBB0BA6584B
:100A0000BF4F8C9187FD1DC0893074F4082E000CF7
:100A1000990B6AE270E0BDD2BC01675F7F4F4AE28A
:100A200050E083E291E0EED283E291E0ABDB809193
:100A30005301863009F083E080931C01109220015D
:100A4000D2C1109220015DC2023009F0A4C0809191
:100A500022018150823020F468EC70E084EF40C0C5
:100A6000E0914D01E130C9F485E090E0DBD2082F40
:100A700061E0813009F460E085E090E0FCD2013073
:100A800019F484E690E002C088EC90E090935A015B
:100A9000809359010130B9F025C0E23061F584E05E
:100AA00090E0C0D2C82E61E0861301C060E084E00F
:100AB00090E0E1D281E0C81201C003E00093570149
:100AC00081E0C81679F020E5C22ED12C36E9832EBC
:100AD000912CB60186EF3EDDC40116DDB60186EF2E
:100AE00039DD9DC08CE2C82EDD24D3949CE2892E92
:100AF00099249394EECF80912001882391F1E11104
:100B000030C0909153019430A1F443E050E066E08E
:100B100070E0CE01019676D219821A831B83CE0132
:100B20000196DBDA60E273E084EF14DD1093560186
:100B300013C081E0933019F0963009F080E080FF17
:100B400017C0D0905401EBDA63E271E08D2DB6DA74
:100B500060E971E084EFFEDC10921C01109220012C
:100B600060C0E33029F4E0925301E0921C0110C010
:100B70000E2E000CFF0BE658FF4F808187FD4FC003
:100B800003E00093530180935401C9DA00931C01E0
:100B90004092200146C081E0033019F0063009F090
:100BA00080E080FF04C080914D01C4DA3AC0043077
:100BB000F1F480914D01E82F082E000CFF0BE65850
:100BC000FF4F908197FD2BC080935601F0921C013E
:100BD0006091590170915A0183EFBCDC4982809188
:100BE00056018A83FB82CE01019677DA1AC005305E
:100BF000C1F480914D018A3064F44982909156018C
:100C00009A838B83CE01019668DA60E971E085EF03
:100C100003C060E971E084EF9DDC109356011092EF
:100C20001C010FEF80915501863008F0DCC00F3FAA
:100C300009F4D9C050904F0150924E01809050015C
:100C400080924F019090510190925001C0905201BA
:100C5000C09251010093520145E050E064E770E01A
:100C60008EE491E0BBD1892BC9F58091220181509E
:100C7000823020F468EC70E084EF27C060E273E01B
:100C800084EF68DCC12CD12CA8956FEFC601F3D19D
:100C90008FEFC81AD80AC11482E0D806A9F7B0921B
:100CA0005A01A092590183E08093570110922201CA
:100CB00010934E0110934F01109350011093510166
:100CC0001093520160E971E085EF44DC45E050E0AB
:100CD0006FEF7FEF8EE491E08ED185C08AE05812ED
:100CE00014C08BE0881211C089E0891570F08C1552
:100CF00060F00A3050F482E081DA45E050E06FEFB6
:100D00007FEF8EE491E077D10ADA80914E018A304C
:100D1000D1F480914F018A30B1F4809150018A3032
:100D200090F4809151018A3070F4809152018A30A0
:100D300050F481E063DA45E050E06FEF7FEF8EE43E
:100D400091E059D1ECD980914E018B3009F04BC024
:100D500080914F018B3009F046C0809150018A305C
:100D600008F041C0809151018A30E8F5809152012C
:100D70008A30C8F543E050E061E070E0CE010196B2
:100D800041D189818F3F39F190E020915001022EAD
:100D9000000C330B82179307A9F42A8130E080916D
:100DA0005101082E000C990B2817390759F44B8173
:100DB00050E020915201022E000C330B81E04217CB
:100DC000530709F080E080FF06C01092220160E91D
:100DD00071E085EFBFDB45E050E06FEF7FEF8EE421
:100DE00091E009D19CD9109221010BC0992349F0BF
:100DF00010921C01109253018C7F80931D0110935F
:100E00004D0100911E0180911D0180FF2FC08B7F3D
:100E100080931D01809157011ED93DD980911D01FC
:100E200082FF22C020911C012093530191E02330C6
:100E300019F0263009F090E090FD40922001409298
:100E40001C018A7F80931D01909122019150923064
:100E500020F0826080931D0103C04092210112D9CD
:100E600068EC70E083EF16C08E7F39C081FF16C03A
:100E70008B7F80931D0183E0EED80DD980911D01F9
:100E800082FF0AC060921C01897F80931D0168EC7B
:100E900070E085EF5FDB95CC8D7F21C083FF22C0A2
:100EA0008B7F80931D0183E0D6D8F5D880911D01FA
:100EB00082FF14C0982F9B7F90931D019091580141
:100EC000923008F07ECC9F5F90935801923009F0E9
:100ED00078CC837F80931D01D5D873CC877F809396
:100EE0001D016FCC85B7877E806185BF85B7806225
:100EF00085BF889585B78F7D85BF63CC44E650E07C
:100F00002BCCE13091F480912201609159017091D4
:100F10005A01823011F483EF01C08AE01BDB8AE0C2
:100F2000E1D810921C010AE07DCEE23091F480916C
:100F300022016091590170915A01823011F483EFBE
:100F400001C08BE007DB8BE0CDD810921C010BE0D9
:100F500069CEE33071F480912201823039F092D869
:100F60004091590150915A0168E00FC060E971E069
:100F700075CD0E2E000CFF0BE658FF4F608167FD0C
:100F800050CE4091590150915A0183E291E09FD98E
:100F900046CE0024552704C0080E591F880F991FFC
:100FA000009729F076956795B8F37105B9F7802D0C
:100FB000952F0895AA1BBB1B51E107C0AA1FBB1F99
:100FC000A617B70710F0A61BB70B881F991F5A95D5
:100FD000A9F780959095BC01CD010895FB01DC0136
:100FE00004C08D910190801921F441505040C8F700
:100FF000881B990B0895DC0101C06D93415050404E
:10100000E0F70895DC01CB01FC01E199FECF06C0B9
:10101000FFBBEEBBE09A31960DB20D9241505040AD
:10102000B8F70895E199FECF9FBB8EBBE09A992750
:101030008DB30895DC01A40FB51F4150504040F01E
:10104000CB01840F951F2E9105D041505040D8F709
:101050000895262FE199FECF9FBB8EBBE09A0197A2
:101060000DB2021639F01CBA2DBB0FB6F894E29AF5
:10107000E19A0FBE0895262FE199FECF1CBA9FBBBF
:101080008EBB2DBB0FB6F894E29AE19A0FBE019683
:061090000895F894FFCF63
:10109600F401E803D007B80BA00F88137017581B8C
:1010A600401F28230A0B000B0A0000FFFFFF010266
:1010B60003040506573D4F2E572E602E4F325732EA
:1010C60060324F38573860384F3D603D404346499F
:1010D6004C4F5255585B5E606366686A6D6F7173FC
:1010E600757678797B7C7D7E7E7F7F7F7F7F7F7F35
:1010F6007E7E7D7C7B7978767573716F6D6A6866A6
:1011060063605E5B5855524F4C494643403C393606
:1011160033302D2A2724211F1C19171512100E0CE7
:101126000A0907060403020101000000000000008E
:1011360001010203040607090A0C0E1012151719FD
:0C1146001C1F2124272A2D303336393C91
:00000001FF
